{
  "contractName": "CoinFlip",
  "abi": [
    {
      "inputs": [],
      "payable": true,
      "stateMutability": "payable",
      "type": "constructor"
    },
    {
      "anonymous": false,
      "inputs": [
        {
          "indexed": false,
          "internalType": "string",
          "name": "description",
          "type": "string"
        }
      ],
      "name": "LogNewProvableQuery",
      "type": "event"
    },
    {
      "anonymous": false,
      "inputs": [
        {
          "indexed": false,
          "internalType": "bytes32",
          "name": "queryId",
          "type": "bytes32"
        }
      ],
      "name": "LogQueryId",
      "type": "event"
    },
    {
      "anonymous": false,
      "inputs": [
        {
          "indexed": true,
          "internalType": "bytes32",
          "name": "queryId",
          "type": "bytes32"
        },
        {
          "indexed": false,
          "internalType": "address",
          "name": "player",
          "type": "address"
        },
        {
          "indexed": false,
          "internalType": "bool",
          "name": "win",
          "type": "bool"
        },
        {
          "indexed": false,
          "internalType": "uint256",
          "name": "prize",
          "type": "uint256"
        }
      ],
      "name": "coinFlipResult",
      "type": "event"
    },
    {
      "anonymous": false,
      "inputs": [
        {
          "indexed": false,
          "internalType": "uint256",
          "name": "randomNumber",
          "type": "uint256"
        }
      ],
      "name": "generatedRandomNumber",
      "type": "event"
    },
    {
      "anonymous": false,
      "inputs": [
        {
          "indexed": false,
          "internalType": "bytes32",
          "name": "queryId",
          "type": "bytes32"
        }
      ],
      "name": "proofRandomFailed",
      "type": "event"
    },
    {
      "constant": true,
      "inputs": [],
      "name": "balance",
      "outputs": [
        {
          "internalType": "uint256",
          "name": "",
          "type": "uint256"
        }
      ],
      "payable": false,
      "stateMutability": "view",
      "type": "function"
    },
    {
      "constant": false,
      "inputs": [
        {
          "internalType": "uint256",
          "name": "myCoinSide",
          "type": "uint256"
        }
      ],
      "name": "flip",
      "outputs": [],
      "payable": true,
      "stateMutability": "payable",
      "type": "function"
    },
    {
      "constant": false,
      "inputs": [
        {
          "internalType": "bytes32",
          "name": "_myid",
          "type": "bytes32"
        },
        {
          "internalType": "string",
          "name": "_result",
          "type": "string"
        }
      ],
      "name": "__callback",
      "outputs": [],
      "payable": false,
      "stateMutability": "nonpayable",
      "type": "function"
    },
    {
      "constant": false,
      "inputs": [
        {
          "internalType": "bytes32",
          "name": "_queryId",
          "type": "bytes32"
        },
        {
          "internalType": "string",
          "name": "_result",
          "type": "string"
        },
        {
          "internalType": "bytes",
          "name": "_proof",
          "type": "bytes"
        }
      ],
      "name": "__callback",
      "outputs": [],
      "payable": false,
      "stateMutability": "nonpayable",
      "type": "function"
    },
    {
      "constant": false,
      "inputs": [],
      "name": "withdrawPrize",
      "outputs": [
        {
          "internalType": "uint256",
          "name": "",
          "type": "uint256"
        }
      ],
      "payable": false,
      "stateMutability": "nonpayable",
      "type": "function"
    },
    {
      "constant": true,
      "inputs": [],
      "name": "showBalance",
      "outputs": [
        {
          "internalType": "uint256",
          "name": "",
          "type": "uint256"
        }
      ],
      "payable": false,
      "stateMutability": "view",
      "type": "function"
    },
    {
      "constant": false,
      "inputs": [],
      "name": "fundContract",
      "outputs": [],
      "payable": true,
      "stateMutability": "payable",
      "type": "function"
    },
    {
      "constant": false,
      "inputs": [],
      "name": "kill",
      "outputs": [],
      "payable": false,
      "stateMutability": "nonpayable",
      "type": "function"
    }
  ],
  "bytecode": "0x6080604052336000806101000a81548173ffffffffffffffffffffffffffffffffffffffff021916908373ffffffffffffffffffffffffffffffffffffffff1602179055503460068190555062000060603060f81b6200006660201b60201c565b62000a8a565b600073ffffffffffffffffffffffffffffffffffffffff16600260009054906101000a900473ffffffffffffffffffffffffffffffffffffffff1673ffffffffffffffffffffffffffffffffffffffff161480620000f657506000620000f4600260009054906101000a900473ffffffffffffffffffffffffffffffffffffffff16620003cc60201b60201c565b145b1562000110576200010e6000620003d760201b60201c565b505b600260009054906101000a900473ffffffffffffffffffffffffffffffffffffffff1673ffffffffffffffffffffffffffffffffffffffff166338cc48316040518163ffffffff1660e01b8152600401602060405180830381600087803b1580156200017b57600080fd5b505af115801562000190573d6000803e3d6000fd5b505050506040513d6020811015620001a757600080fd5b810190808051906020019092919050505073ffffffffffffffffffffffffffffffffffffffff16600160009054906101000a900473ffffffffffffffffffffffffffffffffffffffff1673ffffffffffffffffffffffffffffffffffffffff1614620002f657600260009054906101000a900473ffffffffffffffffffffffffffffffffffffffff1673ffffffffffffffffffffffffffffffffffffffff166338cc48316040518163ffffffff1660e01b8152600401602060405180830381600087803b1580156200027857600080fd5b505af11580156200028d573d6000803e3d6000fd5b505050506040513d6020811015620002a457600080fd5b8101908080519060200190929190505050600160006101000a81548173ffffffffffffffffffffffffffffffffffffffff021916908373ffffffffffffffffffffffffffffffffffffffff1602179055505b600160009054906101000a900473ffffffffffffffffffffffffffffffffffffffff1673ffffffffffffffffffffffffffffffffffffffff1663688dcfd7826040518263ffffffff1660e01b815260040180827effffffffffffffffffffffffffffffffffffffffffffffffffffffffffffff19167effffffffffffffffffffffffffffffffffffffffffffffffffffffffffffff19168152602001915050600060405180830381600087803b158015620003b057600080fd5b505af1158015620003c5573d6000803e3d6000fd5b5050505050565b6000813b9050919050565b6000620003e9620003f060201b60201c565b9050919050565b60008062000418731d3b2638a7cc9f2cb3d298a3da7a90b67e5506ed620003cc60201b60201c565b1115620004c457731d3b2638a7cc9f2cb3d298a3da7a90b67e5506ed600260006101000a81548173ffffffffffffffffffffffffffffffffffffffff021916908373ffffffffffffffffffffffffffffffffffffffff160217905550620004ba6040518060400160405280600b81526020017f6574685f6d61696e6e6574000000000000000000000000000000000000000000815250620009bf60201b60201c565b60019050620009bc565b6000620004eb73c03a2615d5efaf5f49f60b7bb6583eaec212fdf1620003cc60201b60201c565b1115620005975773c03a2615d5efaf5f49f60b7bb6583eaec212fdf1600260006101000a81548173ffffffffffffffffffffffffffffffffffffffff021916908373ffffffffffffffffffffffffffffffffffffffff1602179055506200058d6040518060400160405280600c81526020017f6574685f726f707374656e330000000000000000000000000000000000000000815250620009bf60201b60201c565b60019050620009bc565b6000620005be73b7a07bcf2ba2f2703b24c0691b5278999c59ac7e620003cc60201b60201c565b11156200066a5773b7a07bcf2ba2f2703b24c0691b5278999c59ac7e600260006101000a81548173ffffffffffffffffffffffffffffffffffffffff021916908373ffffffffffffffffffffffffffffffffffffffff160217905550620006606040518060400160405280600981526020017f6574685f6b6f76616e0000000000000000000000000000000000000000000000815250620009bf60201b60201c565b60019050620009bc565b60006200069173146500cfd35b22e4a392fe0adc06de1a1368ed48620003cc60201b60201c565b11156200073d5773146500cfd35b22e4a392fe0adc06de1a1368ed48600260006101000a81548173ffffffffffffffffffffffffffffffffffffffff021916908373ffffffffffffffffffffffffffffffffffffffff160217905550620007336040518060400160405280600b81526020017f6574685f72696e6b656279000000000000000000000000000000000000000000815250620009bf60201b60201c565b60019050620009bc565b60006200076473a2998efd205fb9d4b4963afb70778d6354ad3a41620003cc60201b60201c565b1115620008105773a2998efd205fb9d4b4963afb70778d6354ad3a41600260006101000a81548173ffffffffffffffffffffffffffffffffffffffff021916908373ffffffffffffffffffffffffffffffffffffffff160217905550620008066040518060400160405280600a81526020017f6574685f676f65726c6900000000000000000000000000000000000000000000815250620009bf60201b60201c565b60019050620009bc565b600062000837736f485c8bf6fc43ea212e93bbf8ce046c7f1cb475620003cc60201b60201c565b11156200089d57736f485c8bf6fc43ea212e93bbf8ce046c7f1cb475600260006101000a81548173ffffffffffffffffffffffffffffffffffffffff021916908373ffffffffffffffffffffffffffffffffffffffff16021790555060019050620009bc565b6000620008c47320e12a1f859b3feae5fb2a0a32c18f5a65555bbf620003cc60201b60201c565b11156200092a577320e12a1f859b3feae5fb2a0a32c18f5a65555bbf600260006101000a81548173ffffffffffffffffffffffffffffffffffffffff021916908373ffffffffffffffffffffffffffffffffffffffff16021790555060019050620009bc565b6000620009517351efaf4c8b3c9afbd5ab9f4bbc82784ab6ef8faa620003cc60201b60201c565b1115620009b7577351efaf4c8b3c9afbd5ab9f4bbc82784ab6ef8faa600260006101000a81548173ffffffffffffffffffffffffffffffffffffffff021916908373ffffffffffffffffffffffffffffffffffffffff16021790555060019050620009bc565b600090505b90565b8060039080519060200190620009d7929190620009db565b5050565b828054600181600116156101000203166002900490600052602060002090601f016020900481019282601f1062000a1e57805160ff191683800117855562000a4f565b8280016001018555821562000a4f579182015b8281111562000a4e57825182559160200191906001019062000a31565b5b50905062000a5e919062000a62565b5090565b62000a8791905b8082111562000a8357600081600090555060010162000a69565b5090565b90565b6145d88062000a9a6000396000f3fe60806040526004361061007b5760003560e01c806348d37a581161004e57806348d37a581461030057806381b2d07b1461032b578063b69ef8a814610356578063bd097e21146103815761007b565b8063221e885d1461008057806327dc297e146100ae57806338bbfa501461018057806341c0e1b5146102e9575b600080fd5b6100ac6004803603602081101561009657600080fd5b810190808035906020019092919050505061038b565b005b3480156100ba57600080fd5b5061017e600480360360408110156100d157600080fd5b8101908080359060200190929190803590602001906401000000008111156100f857600080fd5b82018360208201111561010a57600080fd5b8035906020019184600183028401116401000000008311171561012c57600080fd5b91908080601f016020809104026020016040519081016040528093929190818152602001838380828437600081840152601f19601f820116905080830192505050505050509192919290505050610658565b005b34801561018c57600080fd5b506102e7600480360360608110156101a357600080fd5b8101908080359060200190929190803590602001906401000000008111156101ca57600080fd5b8201836020820111156101dc57600080fd5b803590602001918460018302840111640100000000831117156101fe57600080fd5b91908080601f016020809104026020016040519081016040528093929190818152602001838380828437600081840152601f19601f8201169050808301925050505050505091929192908035906020019064010000000081111561026157600080fd5b82018360208201111561027357600080fd5b8035906020019184600183028401116401000000008311171561029557600080fd5b91908080601f016020809104026020016040519081016040528093929190818152602001838380828437600081840152601f19601f82011690508083019250505050505050919291929050505061069b565b005b3480156102f557600080fd5b506102fe610b35565b005b34801561030c57600080fd5b50610315610ba7565b6040518082815260200191505060405180910390f35b34801561033757600080fd5b50610340610dc3565b6040518082815260200191505060405180910390f35b34801561036257600080fd5b5061036b610de2565b6040518082815260200191505060405180910390f35b610389610de8565b005b67016345785d8a0000341015610409576040517f08c379a00000000000000000000000000000000000000000000000000000000081526004018080602001828103825260188152602001807f6d696e696d756d2062657420697320302e31206574686572000000000000000081525060200191505060405180910390fd5b3073ffffffffffffffffffffffffffffffffffffffff1631341115610496576040517f08c379a000000000000000000000000000000000000000000000000000000000815260040180806020018281038252601f8152602001807f626574206d757374206265206c657373207468616e2061206a61636b706f740081525060200191505060405180910390fd5b60001515600a60003373ffffffffffffffffffffffffffffffffffffffff1673ffffffffffffffffffffffffffffffffffffffff16815260200190815260200160002060009054906101000a900460ff161515146104f357600080fd5b6104ff60065434610e55565b6006819055506001600a60003373ffffffffffffffffffffffffffffffffffffffff1673ffffffffffffffffffffffffffffffffffffffff16815260200190815260200160002060006101000a81548160ff0219169083151502179055506000809050600062030d4090506000839050600061057d84600185610edd565b90507fc4dc360d0a9c0677a3379ae0a3d81e887f761e65fdf3d7e00859d1bcd3c4738960405180806020018281038252603681526020018061456e6036913960400191505060405180910390a17fba5c08e7ca16d504b0119b4b9e09b27a571d73bf338d327cfbbe54b0b55ff88d816040518082815260200191505060405180910390a161060d81333485611478565b80600960003373ffffffffffffffffffffffffffffffffffffffff1673ffffffffffffffffffffffffffffffffffffffff168152602001908152602001600020819055505050505050565b610697828260006040519080825280601f01601f1916602001820160405280156106915781602001600182028038833980820191505090505b5061069b565b5050565b6106a3611642565b73ffffffffffffffffffffffffffffffffffffffff163373ffffffffffffffffffffffffffffffffffffffff16146106da57600080fd5b60006106e7848484611962565b60ff161461072b577f423d2c056d1c832427bb8a81100a29d35f41fd586d4aed536b537fce8cc1a3df836040518082815260200191505060405180910390a1610b30565b60006002836040516020018082805190602001908083835b602083106107665780518252602082019150602081019050602083039250610743565b6001836020036101000a0380198251168184511680821785525050505050509050019150506040516020818303038152906040528051906020012060001c816107ab57fe5b0690506007600085815260200190815260200160002060010154811415610952576107d46143d3565b600181600001901515908115158152505061080660026007600088815260200190815260200160002060020154611a92565b816020018181525050806008600087815260200190815260200160002060008201518160000160006101000a81548160ff021916908315150217905550602082015181600101559050506108d3600b60006007600089815260200190815260200160002060000160009054906101000a900473ffffffffffffffffffffffffffffffffffffffff1673ffffffffffffffffffffffffffffffffffffffff1673ffffffffffffffffffffffffffffffffffffffff168152602001908152602001600020548260200151610e55565b600b60006007600089815260200190815260200160002060000160009054906101000a900473ffffffffffffffffffffffffffffffffffffffff1673ffffffffffffffffffffffffffffffffffffffff1673ffffffffffffffffffffffffffffffffffffffff16815260200190815260200160002081905550506109b9565b61095a6143d3565b60008160000190151590811515815250506000816020018181525050806008600087815260200190815260200160002060008201518160000160006101000a81548160ff02191690831515021790555060208201518160010155905050505b6000600a60006007600088815260200190815260200160002060000160009054906101000a900473ffffffffffffffffffffffffffffffffffffffff1673ffffffffffffffffffffffffffffffffffffffff1673ffffffffffffffffffffffffffffffffffffffff16815260200190815260200160002060006101000a81548160ff021916908315150217905550837fb96601d7931bf9e8880d6d1b2b9151cbe28a640376ba213aad05238ecaaf43e26007600087815260200190815260200160002060000160009054906101000a900473ffffffffffffffffffffffffffffffffffffffff166008600088815260200190815260200160002060000160009054906101000a900460ff166008600089815260200190815260200160002060010154604051808473ffffffffffffffffffffffffffffffffffffffff1673ffffffffffffffffffffffffffffffffffffffff16815260200183151515158152602001828152602001935050505060405180910390a2505b505050565b6000809054906101000a900473ffffffffffffffffffffffffffffffffffffffff1673ffffffffffffffffffffffffffffffffffffffff163373ffffffffffffffffffffffffffffffffffffffff1614610b8e57600080fd5b3373ffffffffffffffffffffffffffffffffffffffff16ff5b60008060086000600960003373ffffffffffffffffffffffffffffffffffffffff1673ffffffffffffffffffffffffffffffffffffffff1681526020019081526020016000205481526020019081526020016000206001015411610c0a57600080fd5b6000600b60003373ffffffffffffffffffffffffffffffffffffffff1673ffffffffffffffffffffffffffffffffffffffff1681526020019081526020016000205490506000600b60003373ffffffffffffffffffffffffffffffffffffffff1673ffffffffffffffffffffffffffffffffffffffff1681526020019081526020016000208190555060086000600960003373ffffffffffffffffffffffffffffffffffffffff1673ffffffffffffffffffffffffffffffffffffffff168152602001908152602001600020548152602001908152602001600020600080820160006101000a81549060ff021916905560018201600090555050610d1060065482611b18565b6006819055503373ffffffffffffffffffffffffffffffffffffffff166108fc829081150290604051600060405180830381858888f19350505050158015610d5c573d6000803e3d6000fd5b50600060086000600960003373ffffffffffffffffffffffffffffffffffffffff1673ffffffffffffffffffffffffffffffffffffffff1681526020019081526020016000205481526020019081526020016000206001015414610dbc57fe5b8091505090565b60003073ffffffffffffffffffffffffffffffffffffffff1631905090565b60065481565b6000809054906101000a900473ffffffffffffffffffffffffffffffffffffffff1673ffffffffffffffffffffffffffffffffffffffff163373ffffffffffffffffffffffffffffffffffffffff1614610e4157600080fd5b610e4d60065434610e55565b600681905550565b600080828401905083811015610ed3576040517f08c379a000000000000000000000000000000000000000000000000000000000815260040180806020018281038252601b8152602001807f536166654d6174683a206164646974696f6e206f766572666c6f77000000000081525060200191505060405180910390fd5b8091505092915050565b60008083118015610eef575060208311155b610ef857600080fd5b600a84029350606060016040519080825280601f01601f191660200182016040528015610f345781602001600182028038833980820191505090505b5090508360f81b81600081518110610f4857fe5b60200101907effffffffffffffffffffffffffffffffffffffffffffffffffffffffffffff1916908160001a905350606060206040519080825280601f01601f191660200182016040528015610fad5781602001600182028038833980820191505090505b509050606060206040519080825280601f01601f191660200182016040528015610fe65781602001600182028038833980820191505090505b5090506000610ff3611b62565b905060208352424118600143034018602084015260208252806020830152606060206040519080825280601f01601f1916602001820160405280156110475781602001600182028038833980820191505090505b509050886020820152606060086040519080825280601f01601f1916602001820160405280156110865781602001600182028038833980820191505090505b5090506110998260186008846000611e82565b506110a26143ef565b604051806080016040528087815260200188815260200186815260200184815250905060006111076040518060400160405280600681526020017f72616e646f6d0000000000000000000000000000000000000000000000000000815250838c611ee1565b9050606060086040519080825280601f01601f19166020018201604052801561113f5781602001600182028038833980820191505090505b50905060208401517f0100000000000000000000000000000000000000000000000000000000000000810460278301537e01000000000000000000000000000000000000000000000000000000000000810460268301537d010000000000000000000000000000000000000000000000000000000000810460258301537c0100000000000000000000000000000000000000000000000000000000810460248301537b01000000000000000000000000000000000000000000000000000000810460238301537a01000000000000000000000000000000000000000000000000000081046022830153790100000000000000000000000000000000000000000000000000810460218301537801000000000000000000000000000000000000000000000000810460208301535061146582828560016004811061127e57fe5b602002015160028760006004811061129257fe5b60200201516040518082805190602001908083835b602083106112ca57805182526020820191506020810190506020830392506112a7565b6001836020036101000a038019825116818451168082178552505050505050905001915050602060405180830381855afa15801561130c573d6000803e3d6000fd5b5050506040513d602081101561132157600080fd5b81019080805190602001909291905050508760026004811061133f57fe5b60200201516040516020018085805190602001908083835b6020831061137a5780518252602082019150602081019050602083039250611357565b6001836020036101000a03801982511681845116808217855250505050505090500184805190602001908083835b602083106113cb57805182526020820191506020810190506020830392506113a8565b6001836020036101000a03801982511681845116808217855250505050505090500183815260200182805190602001908083835b6020831061142257805182526020820191506020810190506020830392506113ff565b6001836020036101000a03801982511681845116808217855250505050505090500194505050505060405160208183030381529060405280519060200120612250565b8199505050505050505050509392505050565b60008114806114875750600181145b61149057600080fd5b600084905061149d614416565b84816000019073ffffffffffffffffffffffffffffffffffffffff16908173ffffffffffffffffffffffffffffffffffffffff168152505082816020018181525050611526846115216040518060400160405280600681526020017f72616e646f6d000000000000000000000000000000000000000000000000000081525061226c565b611b18565b816040018181525050806007600084815260200190815260200160002060008201518160000160006101000a81548173ffffffffffffffffffffffffffffffffffffffff021916908373ffffffffffffffffffffffffffffffffffffffff160217905550602082015181600101556040820151816002015590505080602001518160400151604051602001808381526020018281526020019250505060405160208183030381529060405280519060200120600760008481526020019081526020016000206001015460076000858152602001908152602001600020600201546040516020018083815260200182815260200192505050604051602081830303815290604052805190602001201461163a57fe5b505050505050565b60008073ffffffffffffffffffffffffffffffffffffffff16600260009054906101000a900473ffffffffffffffffffffffffffffffffffffffff1673ffffffffffffffffffffffffffffffffffffffff1614806116ca575060006116c8600260009054906101000a900473ffffffffffffffffffffffffffffffffffffffff16612600565b145b156116db576116d9600061260b565b505b600260009054906101000a900473ffffffffffffffffffffffffffffffffffffffff1673ffffffffffffffffffffffffffffffffffffffff166338cc48316040518163ffffffff1660e01b8152600401602060405180830381600087803b15801561174557600080fd5b505af1158015611759573d6000803e3d6000fd5b505050506040513d602081101561176f57600080fd5b810190808051906020019092919050505073ffffffffffffffffffffffffffffffffffffffff16600160009054906101000a900473ffffffffffffffffffffffffffffffffffffffff1673ffffffffffffffffffffffffffffffffffffffff16146118ba57600260009054906101000a900473ffffffffffffffffffffffffffffffffffffffff1673ffffffffffffffffffffffffffffffffffffffff166338cc48316040518163ffffffff1660e01b8152600401602060405180830381600087803b15801561183e57600080fd5b505af1158015611852573d6000803e3d6000fd5b505050506040513d602081101561186857600080fd5b8101908080519060200190929190505050600160006101000a81548173ffffffffffffffffffffffffffffffffffffffff021916908373ffffffffffffffffffffffffffffffffffffffff1602179055505b600160009054906101000a900473ffffffffffffffffffffffffffffffffffffffff1673ffffffffffffffffffffffffffffffffffffffff1663c281d19e6040518163ffffffff1660e01b815260040160206040518083038186803b15801561192257600080fd5b505afa158015611936573d6000803e3d6000fd5b505050506040513d602081101561194c57600080fd5b8101908080519060200190929190505050905090565b60007f4c000000000000000000000000000000000000000000000000000000000000008260008151811061199257fe5b602001015160f81c60f81b7effffffffffffffffffffffffffffffffffffffffffffffffffffffffffffff1916141580611a2557507f5000000000000000000000000000000000000000000000000000000000000000826001815181106119f557fe5b602001015160f81c60f81b7effffffffffffffffffffffffffffffffffffffffffffffffffffffffffffff191614155b80611a515750600160ff1682600281518110611a3d57fe5b602001015160f81c60f81b60f81c60ff1614155b15611a5f5760019050611a8b565b6000611a74838686611a6f61261c565b6126be565b905080611a85576002915050611a8b565b60009150505b9392505050565b600080831415611aa55760009050611b12565b6000828402905082848281611ab657fe5b0414611b0d576040517f08c379a000000000000000000000000000000000000000000000000000000000815260040180806020018281038252602181526020018061450d6021913960400191505060405180910390fd5b809150505b92915050565b6000611b5a83836040518060400160405280601e81526020017f536166654d6174683a207375627472616374696f6e206f766572666c6f770000815250612d69565b905092915050565b60008073ffffffffffffffffffffffffffffffffffffffff16600260009054906101000a900473ffffffffffffffffffffffffffffffffffffffff1673ffffffffffffffffffffffffffffffffffffffff161480611bea57506000611be8600260009054906101000a900473ffffffffffffffffffffffffffffffffffffffff16612600565b145b15611bfb57611bf9600061260b565b505b600260009054906101000a900473ffffffffffffffffffffffffffffffffffffffff1673ffffffffffffffffffffffffffffffffffffffff166338cc48316040518163ffffffff1660e01b8152600401602060405180830381600087803b158015611c6557600080fd5b505af1158015611c79573d6000803e3d6000fd5b505050506040513d6020811015611c8f57600080fd5b810190808051906020019092919050505073ffffffffffffffffffffffffffffffffffffffff16600160009054906101000a900473ffffffffffffffffffffffffffffffffffffffff1673ffffffffffffffffffffffffffffffffffffffff1614611dda57600260009054906101000a900473ffffffffffffffffffffffffffffffffffffffff1673ffffffffffffffffffffffffffffffffffffffff166338cc48316040518163ffffffff1660e01b8152600401602060405180830381600087803b158015611d5e57600080fd5b505af1158015611d72573d6000803e3d6000fd5b505050506040513d6020811015611d8857600080fd5b8101908080519060200190929190505050600160006101000a81548173ffffffffffffffffffffffffffffffffffffffff021916908373ffffffffffffffffffffffffffffffffffffffff1602179055505b600160009054906101000a900473ffffffffffffffffffffffffffffffffffffffff1673ffffffffffffffffffffffffffffffffffffffff1663abaa5f3e6040518163ffffffff1660e01b815260040160206040518083038186803b158015611e4257600080fd5b505afa158015611e56573d6000803e3d6000fd5b505050506040513d6020811015611e6c57600080fd5b8101908080519060200190929190505050905090565b6060600082850190508084511015611e9957600080fd5b600086602001905060008460200190505b868860200101821015611ed25781890151808288015250602082019150602081019050611eaa565b85935050505095945050505050565b60008073ffffffffffffffffffffffffffffffffffffffff16600260009054906101000a900473ffffffffffffffffffffffffffffffffffffffff1673ffffffffffffffffffffffffffffffffffffffff161480611f6957506000611f67600260009054906101000a900473ffffffffffffffffffffffffffffffffffffffff16612600565b145b15611f7a57611f78600061260b565b505b600260009054906101000a900473ffffffffffffffffffffffffffffffffffffffff1673ffffffffffffffffffffffffffffffffffffffff166338cc48316040518163ffffffff1660e01b8152600401602060405180830381600087803b158015611fe457600080fd5b505af1158015611ff8573d6000803e3d6000fd5b505050506040513d602081101561200e57600080fd5b810190808051906020019092919050505073ffffffffffffffffffffffffffffffffffffffff16600160009054906101000a900473ffffffffffffffffffffffffffffffffffffffff1673ffffffffffffffffffffffffffffffffffffffff161461215957600260009054906101000a900473ffffffffffffffffffffffffffffffffffffffff1673ffffffffffffffffffffffffffffffffffffffff166338cc48316040518163ffffffff1660e01b8152600401602060405180830381600087803b1580156120dd57600080fd5b505af11580156120f1573d6000803e3d6000fd5b505050506040513d602081101561210757600080fd5b8101908080519060200190929190505050600160006101000a81548173ffffffffffffffffffffffffffffffffffffffff021916908373ffffffffffffffffffffffffffffffffffffffff1602179055505b6060600460405190808252806020026020018201604052801561219057816020015b606081526020019060019003908161217b5790505b509050836000600481106121a057fe5b6020020151816000815181106121b257fe5b6020026020010181905250836001600481106121ca57fe5b6020020151816001815181106121dc57fe5b6020026020010181905250836002600481106121f457fe5b60200201518160028151811061220657fe5b60200260200101819052508360036004811061221e57fe5b60200201518160038151811061223057fe5b6020026020010181905250612246858285612e29565b9150509392505050565b8060046000848152602001908152602001600020819055505050565b60008073ffffffffffffffffffffffffffffffffffffffff16600260009054906101000a900473ffffffffffffffffffffffffffffffffffffffff1673ffffffffffffffffffffffffffffffffffffffff1614806122f4575060006122f2600260009054906101000a900473ffffffffffffffffffffffffffffffffffffffff16612600565b145b1561230557612303600061260b565b505b600260009054906101000a900473ffffffffffffffffffffffffffffffffffffffff1673ffffffffffffffffffffffffffffffffffffffff166338cc48316040518163ffffffff1660e01b8152600401602060405180830381600087803b15801561236f57600080fd5b505af1158015612383573d6000803e3d6000fd5b505050506040513d602081101561239957600080fd5b810190808051906020019092919050505073ffffffffffffffffffffffffffffffffffffffff16600160009054906101000a900473ffffffffffffffffffffffffffffffffffffffff1673ffffffffffffffffffffffffffffffffffffffff16146124e457600260009054906101000a900473ffffffffffffffffffffffffffffffffffffffff1673ffffffffffffffffffffffffffffffffffffffff166338cc48316040518163ffffffff1660e01b8152600401602060405180830381600087803b15801561246857600080fd5b505af115801561247c573d6000803e3d6000fd5b505050506040513d602081101561249257600080fd5b8101908080519060200190929190505050600160006101000a81548173ffffffffffffffffffffffffffffffffffffffff021916908373ffffffffffffffffffffffffffffffffffffffff1602179055505b600160009054906101000a900473ffffffffffffffffffffffffffffffffffffffff1673ffffffffffffffffffffffffffffffffffffffff1663524f3889836040518263ffffffff1660e01b81526004018080602001828103825283818151815260200191508051906020019080838360005b83811015612572578082015181840152602081019050612557565b50505050905090810190601f16801561259f5780820380516001836020036101000a031916815260200191505b5092505050602060405180830381600087803b1580156125be57600080fd5b505af11580156125d2573d6000803e3d6000fd5b505050506040513d60208110156125e857600080fd5b81019080805190602001909291905050509050919050565b6000813b9050919050565b600061261561338f565b9050919050565b606060038054600181600116156101000203166002900480601f0160208091040260200160405190810160405280929190818152602001828054600181600116156101000203166002900480156126b45780601f10612689576101008083540402835291602001916126b4565b820191906000526020600020905b81548152906001019060200180831161269757829003601f168201915b5050505050905090565b60008060206002876045815181106126d257fe5b602001015160f81c60f81b60f81c60ff1601604401019050606060206040519080825280601f01601f1916602001820160405280156127205781602001600182028038833980820191505090505b50905061273287836020846000611e82565b50600284876040516020018083805190602001908083835b6020831061276d578051825260208201915060208101905060208303925061274a565b6001836020036101000a038019825116818451168082178552505050505050905001828152602001925050506040516020818303038152906040526040518082805190602001908083835b602083106127db57805182526020820191506020810190506020830392506127b8565b6001836020036101000a038019825116818451168082178552505050505050905001915050602060405180830381855afa15801561281d573d6000803e3d6000fd5b5050506040513d602081101561283257600080fd5b8101908080519060200190929190505050604051602001808281526020019150506040516020818303038152906040528051906020012081805190602001201461288157600092505050612d61565b6060600288600160498601018151811061289757fe5b602001015160f81c60f81b60f81c60ff16016040519080825280601f01601f1916602001820160405280156128db5781602001600182028038833980820191505090505b5090506128f088604985018351846000611e82565b506129bb6002826040518082805190602001908083835b6020831061292a5780518252602082019150602081019050602083039250612907565b6001836020036101000a038019825116818451168082178552505050505050905001915050602060405180830381855afa15801561296c573d6000803e3d6000fd5b5050506040513d602081101561298157600080fd5b8101908080519060200190929190505050878a60086020880101815181106129a557fe5b602001015160f81c60f81b60f81c60ff166138e6565b6129cb5760009350505050612d61565b606060296040519080825280601f01601f191660200182016040528015612a015781602001600182028038833980820191505090505b509050612a1689602086016029846000611e82565b506060604080519080825280601f01601f191660200182016040528015612a4c5781602001600182028038833980820191505090505b5090506000604184516029602089010101019050612a728b604083036040856000611e82565b5060006002836040518082805190602001908083835b60208310612aab5780518252602082019150602081019050602083039250612a88565b6001836020036101000a038019825116818451168082178552505050505050905001915050602060405180830381855afa158015612aed573d6000803e3d6000fd5b5050506040513d6020811015612b0257600080fd5b8101908080519060200190929190505050905083816040516020018083805190602001908083835b60208310612b4d5780518252602082019150602081019050602083039250612b2a565b6001836020036101000a0380198251168184511680821785525050505050509050018281526020019250505060405160208183030381529060405280519060200120600460008d8152602001908152602001600020541415612bc557600460008c815260200190815260200160002060009055612bd5565b6000975050505050505050612d61565b606060496040519080825280601f01601f191660200182016040528015612c0b5781602001600182028038833980820191505090505b509050612c1d8d896049846000611e82565b50612cc66002826040518082805190602001908083835b60208310612c575780518252602082019150602081019050602083039250612c34565b6001836020036101000a038019825116818451168082178552505050505050905001915050602060405180830381855afa158015612c99573d6000803e3d6000fd5b5050506040513d6020811015612cae57600080fd5b81019080805190602001909291905050508786613996565b612cdb57600098505050505050505050612d61565b6005600083815260200190815260200160002060009054906101000a900460ff16612d3557612d0a8d84613b54565b6005600084815260200190815260200160002060006101000a81548160ff0219169083151502179055505b6005600083815260200190815260200160002060009054906101000a900460ff16985050505050505050505b949350505050565b6000838311158290612e16576040517f08c379a00000000000000000000000000000000000000000000000000000000081526004018080602001828103825283818151815260200191508051906020019080838360005b83811015612ddb578082015181840152602081019050612dc0565b50505050905090810190601f168015612e085780820380516001836020036101000a031916815260200191505b509250505060405180910390fd5b5060008385039050809150509392505050565b60008073ffffffffffffffffffffffffffffffffffffffff16600260009054906101000a900473ffffffffffffffffffffffffffffffffffffffff1673ffffffffffffffffffffffffffffffffffffffff161480612eb157506000612eaf600260009054906101000a900473ffffffffffffffffffffffffffffffffffffffff16612600565b145b15612ec257612ec0600061260b565b505b600260009054906101000a900473ffffffffffffffffffffffffffffffffffffffff1673ffffffffffffffffffffffffffffffffffffffff166338cc48316040518163ffffffff1660e01b8152600401602060405180830381600087803b158015612f2c57600080fd5b505af1158015612f40573d6000803e3d6000fd5b505050506040513d6020811015612f5657600080fd5b810190808051906020019092919050505073ffffffffffffffffffffffffffffffffffffffff16600160009054906101000a900473ffffffffffffffffffffffffffffffffffffffff1673ffffffffffffffffffffffffffffffffffffffff16146130a157600260009054906101000a900473ffffffffffffffffffffffffffffffffffffffff1673ffffffffffffffffffffffffffffffffffffffff166338cc48316040518163ffffffff1660e01b8152600401602060405180830381600087803b15801561302557600080fd5b505af1158015613039573d6000803e3d6000fd5b505050506040513d602081101561304f57600080fd5b8101908080519060200190929190505050600160006101000a81548173ffffffffffffffffffffffffffffffffffffffff021916908373ffffffffffffffffffffffffffffffffffffffff1602179055505b6000600160009054906101000a900473ffffffffffffffffffffffffffffffffffffffff1673ffffffffffffffffffffffffffffffffffffffff16632ef3accc86856040518363ffffffff1660e01b81526004018080602001838152602001828103825284818151815260200191508051906020019080838360005b8381101561313857808201518184015260208101905061311d565b50505050905090810190601f1680156131655780820380516001836020036101000a031916815260200191505b509350505050602060405180830381600087803b15801561318557600080fd5b505af1158015613199573d6000803e3d6000fd5b505050506040513d60208110156131af57600080fd5b81019080805190602001909291905050509050823a02670de0b6b3a7640000018111156131e2576000801b915050613388565b60606131ed85613f6c565b9050600160009054906101000a900473ffffffffffffffffffffffffffffffffffffffff1673ffffffffffffffffffffffffffffffffffffffff1663c55c1cb68360008985896040518663ffffffff1660e01b8152600401808581526020018060200180602001848152602001838103835286818151815260200191508051906020019080838360005b83811015613292578082015181840152602081019050613277565b50505050905090810190601f1680156132bf5780820380516001836020036101000a031916815260200191505b50838103825285818151815260200191508051906020019080838360005b838110156132f85780820151818401526020810190506132dd565b50505050905090810190601f1680156133255780820380516001836020036101000a031916815260200191505b5096505050505050506020604051808303818588803b15801561334757600080fd5b505af115801561335b573d6000803e3d6000fd5b50505050506040513d602081101561337257600080fd5b8101908080519060200190929190505050925050505b9392505050565b6000806133af731d3b2638a7cc9f2cb3d298a3da7a90b67e5506ed612600565b111561345157731d3b2638a7cc9f2cb3d298a3da7a90b67e5506ed600260006101000a81548173ffffffffffffffffffffffffffffffffffffffff021916908373ffffffffffffffffffffffffffffffffffffffff1602179055506134486040518060400160405280600b81526020017f6574685f6d61696e6e6574000000000000000000000000000000000000000000815250613fec565b600190506138e3565b600061347073c03a2615d5efaf5f49f60b7bb6583eaec212fdf1612600565b11156135125773c03a2615d5efaf5f49f60b7bb6583eaec212fdf1600260006101000a81548173ffffffffffffffffffffffffffffffffffffffff021916908373ffffffffffffffffffffffffffffffffffffffff1602179055506135096040518060400160405280600c81526020017f6574685f726f707374656e330000000000000000000000000000000000000000815250613fec565b600190506138e3565b600061353173b7a07bcf2ba2f2703b24c0691b5278999c59ac7e612600565b11156135d35773b7a07bcf2ba2f2703b24c0691b5278999c59ac7e600260006101000a81548173ffffffffffffffffffffffffffffffffffffffff021916908373ffffffffffffffffffffffffffffffffffffffff1602179055506135ca6040518060400160405280600981526020017f6574685f6b6f76616e0000000000000000000000000000000000000000000000815250613fec565b600190506138e3565b60006135f273146500cfd35b22e4a392fe0adc06de1a1368ed48612600565b11156136945773146500cfd35b22e4a392fe0adc06de1a1368ed48600260006101000a81548173ffffffffffffffffffffffffffffffffffffffff021916908373ffffffffffffffffffffffffffffffffffffffff16021790555061368b6040518060400160405280600b81526020017f6574685f72696e6b656279000000000000000000000000000000000000000000815250613fec565b600190506138e3565b60006136b373a2998efd205fb9d4b4963afb70778d6354ad3a41612600565b11156137555773a2998efd205fb9d4b4963afb70778d6354ad3a41600260006101000a81548173ffffffffffffffffffffffffffffffffffffffff021916908373ffffffffffffffffffffffffffffffffffffffff16021790555061374c6040518060400160405280600a81526020017f6574685f676f65726c6900000000000000000000000000000000000000000000815250613fec565b600190506138e3565b6000613774736f485c8bf6fc43ea212e93bbf8ce046c7f1cb475612600565b11156137d857736f485c8bf6fc43ea212e93bbf8ce046c7f1cb475600260006101000a81548173ffffffffffffffffffffffffffffffffffffffff021916908373ffffffffffffffffffffffffffffffffffffffff160217905550600190506138e3565b60006137f77320e12a1f859b3feae5fb2a0a32c18f5a65555bbf612600565b111561385b577320e12a1f859b3feae5fb2a0a32c18f5a65555bbf600260006101000a81548173ffffffffffffffffffffffffffffffffffffffff021916908373ffffffffffffffffffffffffffffffffffffffff160217905550600190506138e3565b600061387a7351efaf4c8b3c9afbd5ab9f4bbc82784ab6ef8faa612600565b11156138de577351efaf4c8b3c9afbd5ab9f4bbc82784ab6ef8faa600260006101000a81548173ffffffffffffffffffffffffffffffffffffffff021916908373ffffffffffffffffffffffffffffffffffffffff160217905550600190506138e3565b600090505b90565b60008060019050828451146138fa57600080fd5b60008090505b8381101561398a5784818151811061391457fe5b602001015160f81c60f81b7effffffffffffffffffffffffffffffffffffffffffffffffffffffffffffff191686826020811061394d57fe5b1a60f81b7effffffffffffffffffffffffffffffffffffffffffffffffffffffffffffff19161461397d57600091505b8080600101915050613900565b50809150509392505050565b6000806000806000606060206040519080825280601f01601f1916602001820160405280156139d45781602001600182028038833980820191505090505b50905060006020896003815181106139e857fe5b602001015160f81c60f81b60f81c60ff16036004019050613a0e89826020856000611e82565b9150606060206040519080825280601f01601f191660200182016040528015613a465781602001600182028038833980820191505090505b509050602282019150613a828a60208c6001860381518110613a6457fe5b602001015160f81c60f81b60f81c60ff160384016020846000611e82565b90506020830151945060208101519350613a9f8b601b8787614006565b80975081985050508573ffffffffffffffffffffffffffffffffffffffff16898051906020012060001c73ffffffffffffffffffffffffffffffffffffffff161415613af5576001975050505050505050613b4d565b613b028b601c8787614006565b80975081985050508573ffffffffffffffffffffffffffffffffffffffff16898051906020012060001c73ffffffffffffffffffffffffffffffffffffffff16149750505050505050505b9392505050565b60008060606002856001860181518110613b6a57fe5b602001015160f81c60f81b60f81c60ff16016040519080825280601f01601f191660200182016040528015613bae5781602001600182028038833980820191505090505b509050613bc085858351846000611e82565b506060604080519080825280601f01601f191660200182016040528015613bf65781602001600182028038833980820191505090505b509050613c098660046040846000611e82565b50606060626040519080825280601f01601f191660200182016040528015613c405781602001600182028038833980820191505090505b509050600160f81b81600081518110613c5557fe5b60200101907effffffffffffffffffffffffffffffffffffffffffffffffffffffffffffff1916908160001a905350613c9687604188036041846001611e82565b5060606040518060400160405280602081526020017ffd94fa71bc0ba10d39d464d0d8f465efeef0a2764e3887fcc9df41ded20f505c8152509050613ce18160006020856042611e82565b50613d8a6002836040518082805190602001908083835b60208310613d1b5780518252602082019150602081019050602083039250613cf8565b6001836020036101000a038019825116818451168082178552505050505050905001915050602060405180830381855afa158015613d5d573d6000803e3d6000fd5b5050506040513d6020811015613d7257600080fd5b81019080805190602001909291905050508585613996565b945084613d9f57600095505050505050613f66565b606060405180606001604052806040815260200161452e604091399050606060426040519080825280601f01601f191660200182016040528015613df25781602001600182028038833980820191505090505b50905060fe60f81b81600081518110613e0757fe5b60200101907effffffffffffffffffffffffffffffffffffffffffffffffffffffffffffff1916908160001a905350613e468a60036041846001611e82565b50606060028b604581518110613e5857fe5b602001015160f81c60f81b60f81c60ff16016040519080825280601f01601f191660200182016040528015613e9c5781602001600182028038833980820191505090505b509050613eaf8b60448351846000611e82565b50613f586002836040518082805190602001908083835b60208310613ee95780518252602082019150602081019050602083039250613ec6565b6001836020036101000a038019825116818451168082178552505050505050905001915050602060405180830381855afa158015613f2b573d6000803e3d6000fd5b5050506040513d6020811015613f4057600080fd5b81019080805190602001909291905050508285613996565b975087985050505050505050505b92915050565b6060613f7661404a565b613f7e61444d565b613f8a81610400614056565b613f93816140a0565b60008090505b8351811015613fd557613fc8848281518110613fb157fe5b6020026020010151836140ae90919063ffffffff16565b8080600101915050613f99565b50613fdf816140d3565b8060000151915050919050565b8060039080519060200190614002929190614467565b5050565b60008060008060405188815287602082015286604082015285606082015260208160808360006001610bb8f192508051915050818193509350505094509492505050565b60405180590338823950565b600081905060006020828161406757fe5b0614614080576020818161407757fe5b06602003810190505b808360200181815250506040518084526000815281810160405250505050565b6140ab8160046140e1565b50565b6140bb8260028351614102565b6140ce818361424290919063ffffffff16565b505050565b6140de8160076140e1565b50565b6140fe601f60058360ff16901b17836142ed90919063ffffffff16565b5050565b6017811161412e576141298160058460ff16901b60ff1617846142ed90919063ffffffff16565b61423d565b60ff811161416f57614153601860058460ff16901b17846142ed90919063ffffffff16565b6141698160018561432d9092919063ffffffff16565b5061423c565b61ffff81116141b157614195601960058460ff16901b17846142ed90919063ffffffff16565b6141ab8160028561432d9092919063ffffffff16565b5061423b565b63ffffffff81116141f5576141d9601a60058460ff16901b17846142ed90919063ffffffff16565b6141ef8160048561432d9092919063ffffffff16565b5061423a565b67ffffffffffffffff811161423957614221601b60058460ff16901b17846142ed90919063ffffffff16565b6142378160088561432d9092919063ffffffff16565b505b5b5b5b5b505050565b61424a61444d565b8260200151836000015151835101111561427a5761427983600261427386602001518651614394565b026143b0565b5b60008060008451905085518051602081830101945086518101825260208701935050505b602081106142c1578151835260208301925060208201915060208103905061429e565b60006001826020036101000a039050801983511681855116818117865250508694505050505092915050565b81602001516001836000015151011115614313576143128260028460200151026143b0565b5b815180516020818301018381536001820183525050505050565b61433561444d565b8360200151846000015151830111156143635761436284600261435c876020015186614394565b026143b0565b5b60006001836101000a0390508451805184818301018684198251161781528582018352505050849150509392505050565b6000818311156143a6578290506143aa565b8190505b92915050565b6060826000015190506143c38383614056565b6143cd8382614242565b50505050565b6040518060400160405280600015158152602001600081525090565b60405180608001604052806004905b60608152602001906001900390816143fe5790505090565b6040518060600160405280600073ffffffffffffffffffffffffffffffffffffffff16815260200160008152602001600081525090565b604051806040016040528060608152602001600081525090565b828054600181600116156101000203166002900490600052602060002090601f016020900481019282601f106144a857805160ff19168380011785556144d6565b828001600101855582156144d6579182015b828111156144d55782518255916020019190600101906144ba565b5b5090506144e391906144e7565b5090565b61450991905b808211156145055760008160009055506001016144ed565b5090565b9056fe536166654d6174683a206d756c7469706c69636174696f6e206f766572666c6f777fb956469c5c9b89840d55b43537e66a98dd4811ea0a27224272c2e5622911e8537a2f8e86a46baec82864e98dd01e9ccc2f8bc5dfc9cbe5a91a290498dd96e450726f7661626c65207175657279207761732073656e742c207374616e64696e6720627920666f722074686520616e737765722e2e2ea265627a7a72315820f5c8900229c4afbaae4fa3268c48177ba7287897b3d981933ad9bd058379968664736f6c634300050c0032",
  "source": "import \"./Ownable.sol\";\r\nimport \"./provableAPI.sol\";\r\nimport \"./SafeMath.sol\";\r\n\r\npragma solidity 0.5.12;\r\n\r\n\r\ncontract CoinFlip is Ownable, usingProvable {\r\n\r\n    uint256 constant NUM_RANDOM_BYTES_REQUESTED = 1;\r\n    uint256 public balance;\r\n    \r\n    struct Bet {\r\n        address payable player;\r\n        uint256 coinside;\r\n        uint256 betvalue;\r\n    }\r\n\r\n    struct Result {\r\n        bool win;\r\n        uint prize;\r\n    }\r\n    \r\n    mapping (bytes32 => Bet) private bettings;\r\n    mapping (bytes32 => Result) private results;\r\n    mapping (address => bytes32) private IDs;\r\n    mapping (address => bool) private waiting;\r\n    mapping (address => uint) private playersBalances;\r\n\r\n    event proofRandomFailed(bytes32 queryId);\r\n    event LogNewProvableQuery(string description);\r\n    event LogQueryId(bytes32 queryId);\r\n    event generatedRandomNumber(uint256 randomNumber);\r\n    event coinFlipResult (bytes32 indexed queryId, address player, bool win, uint prize);\r\n\r\n    constructor() public payable {\r\n        balance = msg.value;\r\n        provable_setProof(proofType_Ledger);\r\n    }\r\n\r\n    function flip (uint myCoinSide) public payable {\r\n        require (msg.value >= 0.1 ether, \"minimum bet is 0.1 ether\");\r\n        require (msg.value <= address(this).balance, \"bet must be less than a jackpot\");\r\n        require (waiting[msg.sender] == false);\r\n\r\n        balance = SafeMath.add(balance, msg.value);\r\n        waiting[msg.sender] = true;\r\n\r\n        uint256 QUERY_EXECUTION_DELAY = 0;\r\n        uint256 GAS_FOR_CALLBACK = 200000;\r\n        uint coinside = myCoinSide;\r\n        //bytes32 queryId = random();\r\n        \r\n        bytes32 queryId = provable_newRandomDSQuery(QUERY_EXECUTION_DELAY, NUM_RANDOM_BYTES_REQUESTED, GAS_FOR_CALLBACK);\r\n        \r\n        emit LogNewProvableQuery(\"Provable query was sent, standing by for the answer...\");\r\n        emit LogQueryId (queryId);\r\n\r\n        setAbet(queryId, msg.sender, msg.value, coinside);\r\n        IDs[msg.sender] = queryId;\r\n        //balance = address(this).balance;\r\n    }\r\n\r\n    \r\n    function setAbet(bytes32 _queryId, address payable player, uint myBetValue, uint myCoinSide) private {\r\n        require (myCoinSide == 0 || myCoinSide == 1);\r\n        \r\n        bytes32 queryId = _queryId;    \r\n        Bet memory newbet;\r\n        \r\n        newbet.player = player;\r\n        newbet.coinside = myCoinSide;\r\n        //newbet.betvalue = myBetValue;\r\n        newbet.betvalue = SafeMath.sub(myBetValue, provable_getPrice(\"random\"));\r\n        bettings[queryId] = newbet;\r\n\r\n        assert(keccak256\r\n        (abi.encodePacked \r\n        (bettings[queryId].coinside, bettings[queryId].betvalue)) \r\n        == \r\n        keccak256\r\n        (abi.encodePacked\r\n        (newbet.coinside, newbet.betvalue)));\r\n\r\n    }\r\n\r\n\r\n    function __callback(bytes32 _queryId, string memory _result, bytes memory _proof) public {\r\n        require(msg.sender == provable_cbAddress());\r\n        \r\n        if (provable_randomDS_proofVerify__returnCode(_queryId, _result, _proof) != 0) {\r\n            emit proofRandomFailed(_queryId);\r\n        } \r\n        else {\r\n            uint256 randomNumber = uint256(keccak256(abi.encodePacked(_result))) % 2;\r\n        \r\n             if (randomNumber == bettings[_queryId].coinside) {\r\n                Result memory newresult;\r\n                newresult.win = true;\r\n                newresult.prize = SafeMath.mul(2, bettings[_queryId].betvalue);\r\n                results[_queryId] = newresult;\r\n                playersBalances[bettings[_queryId].player] = SafeMath.add(playersBalances[bettings[_queryId].player], newresult.prize);\r\n                //emit coinFlipResult (_queryId, bettings[_queryId].player, results[_queryId].win, results[_queryId].prize);\r\n                }\r\n\r\n            else { \r\n                Result memory newresult;\r\n                newresult.win = false;\r\n                newresult.prize = 0;\r\n                results[_queryId] = newresult;\r\n                }\r\n                waiting[bettings[_queryId].player] = false;\r\n                emit coinFlipResult (_queryId, bettings[_queryId].player, results[_queryId].win, results[_queryId].prize);\r\n        }\r\n    }\r\n\r\n\r\n    /*function random() public returns (bytes32) {\r\n        bytes32 queryId = bytes32(keccak256(abi.encodePacked(msg.sender)));\r\n        __callback (queryId, \"1\", bytes(\"test\"));\r\n        return queryId;\r\n    }*/\r\n\r\n\r\n    function withdrawPrize() public returns (uint) {\r\n        require(results[IDs[msg.sender]].prize > 0);\r\n        uint toTransfer = playersBalances[msg.sender];\r\n\r\n        playersBalances[msg.sender] = 0;\r\n        delete results[IDs[msg.sender]];\r\n        balance = SafeMath.sub(balance, toTransfer);\r\n        msg.sender.transfer(toTransfer);\r\n        assert(results[IDs[msg.sender]].prize == 0);\r\n        return toTransfer;\r\n    }\r\n    \r\n    function showBalance() public view returns (uint) {\r\n        return address(this).balance;\r\n    }\r\n\r\n    function fundContract() public onlyOwner payable {\r\n        balance = SafeMath.add(balance, msg.value);\r\n    }\r\n\r\n    function kill() public onlyOwner {\r\n        selfdestruct(msg.sender);\r\n    }\r\n\r\n}",
  "sourcePath": "C:/Users/Admin/Documents/Ethereum course 201/Coin Flip Project phase 2/contracts/CoinFlip.sol",
  "compiler": {
    "name": "solc",
    "version": "0.5.12+commit.7709ece9.Emscripten.clang"
  },
  "schemaVersion": "3.0.16",
  "updatedAt": "2020-11-04T00:18:42.531Z",
  "devdoc": {
    "methods": {
      "__callback(bytes32,string)": {
        "details": "The following `__callback` functions are just placeholders ideally     meant to be defined in child contract when proofs are used.     The function bodies simply silence compiler warnings."
      }
    }
  },
  "userdoc": {
    "methods": {}
  }
}